TH      BUBC0000012010081816044600000124000000000348F                                                                                                                                                                                                     
TD               8406673916700000000000001319238BUDGSTANDARD4378         00000007I                  201008090010000000CRED    M0079E                                                                                                                      
TD               8406673917400000000000001319811BUDGSTANDARD4378         00000006G                  201008080010000000CRED    M0067B                                                                                                                      
TD               8406673918100000000000001320279BUDGSTANDARD4378         00000007B                  201008080010000000CRED    M0072{                                                                                                                      
TD               8406673919900000000000001320538BUDGSTANDARD4386         00000003E                  201008090010000000CRED    M0035I                                                                                                                      
TD               8406673920000000000000001320538BUDGSTANDARD4386         00000003D                  201008090010000000CRED    M0034I                                                                                                                      
TD               8406673921700000000000001320817BUDGSTANDARD4386         00000004B                  201008080010000000CRED    M0042{                                                                                                                      
TD               8406673922400000000000001320963BUDGSTANDARD4378         00000004G                  201008080010000000CRED    S0047{                                                                                                                      
TD               8406673923100000000000001321009BUDGSTANDARD4378         00000003E                  201008080010000000CASH    M0035A                                                                                                                      
TD               8406673924900000000000001321166BUDGSTANDARD4378         00000007B                  201008080010000000CRED    M0072{                                                                                                                      
TD               8406673925600000000000001321319BUDGSTANDARD4382         00000005E                  201008080010000000CRED    M0055B                                                                                                                      
TD               8406854196700000000000001321325BUDGSTANDARD4378         00000004H                  201008090010000000CRED    M0048F                                                                                                                      
TD               8406854197400000000000001321365BUDGSTANDARD4378         00000005D                  201008090010000000CASH    S0054A                                                                                                                      
TD               8406854198100000000000001321418BUDGSTANDARD4378         00000003E                  201008090010000000CRED    S0035B                                                                                                                      
TD               8406854199900000000000001321450BUDGSTANDARD4378         00000004C                  201008090010000000CRED    M0043G                                                                                                                      
TD               8406854200100000000000001321481BUDGSTANDARD4382         00000006E                  201008090010000000CRED    M0065H                                                                                                                      
TD               8406854201900000000000001321583BUDGSTANDARD4378         00000003E                  201008080010000000CRED    M0035B                                                                                                                      
TD               8406854202600000000000001321819BUDGSTANDARD4378         00000007I                  201008080010000000CRED    M0079B                                                                                                                      
TD               8406854203300000000000001321825BUDGSTANDARD4378         00000003D                  201008090010000000CRED    S0034E                                                                                                                      
TD               8406854204000000000000001321938BUDGSTANDARD4386         00000001H                  201008080010000000CRED    M0018A                                                                                                                      
TD               8406854205800000000000001321998BUDGSTANDARD4378         00000006E                  201008080010000000CRED    M0065H                                                                                                                      
TD               8406854206500000000000001322019BUDGSTANDARD4378         00000004B                  201008080010000000CRED    M0042F                                                                                                                      
TD               8406854207200000000000001322050BUDGSTANDARD4378         00000003C                  201008080010000000CRED    M0033{                                                                                                                      
TD               8406854208000000000000001322182BUDGSTANDARD4382         00000002I                  201008090010000000CRED    M0029G                                                                                                                      
TD               8406854209700000000000001322193BUDGSTANDARD4378         00000003D                  201008090010000000CRED    M0034H                                                                                                                      
TD               8406854209700000000000001324087BUDGSTANDARD4382         00000000C                  201008090010000000CRED    M0003G                                                                                                                      
TD               8406854210800000000000001322239BUDGSTANDARD4382         00000003D                  201008080010000000CRED    S0034H                                                                                                                      
TD               8406854210800000000000001324205BUDGSTANDARD4378         00000000G                  201008090010000000CRED    M0007E                                                                                                                      
TD               8406854211500000000000001322257BUDGSTANDARD4378         00000002F                  201008090010000000CRED    M0026C                                                                                                                      
TD               8406854211500000000000001324394BUDGSTANDARD4378         00000000G                  201008090010000000CRED    M0007A                                                                                                                      
TD               8406854212200000000000001322268BUDGSTANDARD4386         00000005C                  201008090010000000CRED    M0053C                                                                                                                      
TD               8406854212200000000000001324026BUDGSTANDARD4382         00000000I                  201008090010000000CRED    S0009{                                                                                                                      
TD               8406854212200000000000001326921BUDGSTANDARD4378         00000007D                  201008190010000000CRED    M0074I                                                                                                                      
TD               8406854213000000000000001322273BUDGSTANDARD4382         00000003C                  201008090010000000CRED    M0033G                                                                                                                      
TD               8406854213000000000000001324033BUDGSTANDARD4378         00000000I                  201008090010000000CRED    M0009H                                                                                                                      
TD               8406854214700000000000001322308BUDGSTANDARD4378         00000003H                  201008080010000000CRED    S0038{                                                                                                                      
TD               8406854214700000000000001324049BUDGSTANDARD4378         00000000E                  201008090010000000CRED    M0005F                                                                                                                      
TD               8406854215400000000000001322309BUDGSTANDARD4382         00000004E                  201008090010000000CRED    M0045C                                                                                                                      
TD               8406854216100000000000001322337BUDGSTANDARD4378         00000004G                  201008090010000000CRED    M0047F                                                                                                                      
TD               8406854217900000000000001322348BUDGSTANDARD4378         00000005D                  201008090010000000CRED    M0054D                                                                                                                      
TD               8406854218600000000000001322362BUDGSTANDARD4378         00000003C                  201008080010000000CRED    M0033{                                                                                                                      
TD               8406854219300000000000001322420BUDGSTANDARD4378         00000002H                  201008080010000000CRED    M0028F                                                                                                                      
TD               8406854220400000000000001322422BUDGSTANDARD4378         00000002E                  201008090010000000CRED    M0025E                                                                                                                      
TD               8406854221100000000000001322568BUDGSTANDARD4378         00000003A                  201008080010000000CRED    S0031F                                                                                                                      
TD               8406854221100000000000001326926BUDGSTANDARD4378         00000001H                  201008190010000000CRED    M0018D                                                                                                                      
TD               8406854222900000000000001322661BUDGSTANDARD4378         00000003C                  201008090010000000CRED    M0033{                                                                                                                      
TD               8406854223600000000000001322690BUDGSTANDARD4378         00000003A                  201008080010000000CRED    M0031F                                                                                                                      
TD               8406854224300000000000001322751BUDGSTANDARD4378         00000004A                  201008090010000000CRED    M0041H                                                                                                                      
TD               8406854225000000000000001322753BUDGSTANDARD4378         00000003F                  201008090010000000CRED    M0036{                                                                                                                      
TD               8406854226800000000000001322829BUDGSTANDARD4378         00000003C                  201008080010000000CRED    M0033A                                                                                                                      
TD               8406854227500000000000001322911BUDGSTANDARD4378         00000003C                  201008090010000000CRED    M0033A                                                                                                                      
TD               8406854228200000000000001322919BUDGSTANDARD4382         00000002B                  201008080010000000CRED    M0022C                                                                                                                      
TD               8406854229000000000000001322942BUDGSTANDARD4378         00000001D                  201008090010000000CRED    M0014F                                                                                                                      
TD               8406854230000000000000001322943BUDGSTANDARD4378         00000001F                  201008080010000000CRED    M0016D                                                                                                                      
TD               8406854231800000000000001322945BUDGSTANDARD4378         00000003D                  201008090010000000CRED    M0034E                                                                                                                      
TD               8406854232500000000000001322990BUDGSTANDARD4378         00000003{                  201008090010000000CRED    M0030{                                                                                                                      
TD               8406854233200000000000001323022BUDGSTANDARD4378         00000001H                  201008080010000000CRED    M0018{                                                                                                                      
TD               8406854234000000000000001323038BUDGSTANDARD4378         00000002C                  201008080010000000CRED    M0023F                                                                                                                      
TD               8406854235700000000000001323061BUDGSTANDARD4378         00000003F                  201008090010000000CRED    M0036{                                                                                                                      
TD               8406854236400000000000001323086BUDGSTANDARD4378         00000001G                  201008080010000000CRED    M0017F                                                                                                                      
TD               8406854237100000000000001323142BUDGSTANDARD4382         00000002I                  201008090010000000CRED    M0029E                                                                                                                      
TD               8406854238900000000000001323172BUDGSTANDARD4378         00000002I                  201008090010000000CRED    M0029F                                                                                                                      
TD               8406854239600000000000001323173BUDGSTANDARD4378         00000002B                  201008080010000000CRED    M0022G                                                                                                                      
TD               8406854240700000000000001323214BUDGSTANDARD4378         00000001I                  201008090010000000CRED    M0019E                                                                                                                      
TD               8406854240700000000000001326929BUDG1013BUDG4382         00000002E                  201008190010000000CRED    M0044I                                                                                                                      
TD               8406854240700000000000001326929BUDGSTANDARD4382         00000004D                  201008190010000000CRED    M0044I                                                                                                                      
TD               8406854241400000000000001323222BUDGSTANDARD4378         00000004F                  201008080010000000CRED    M0046A                                                                                                                      
TD               8406854242100000000000001323251BUDGSTANDARD4378         00000002E                  201008090010000000CRED    M0025B                                                                                                                      
TD               8406854243900000000000001323260BUDGSTANDARD4378         00000001F                  201008090010000000CRED    M0016H                                                                                                                      
TD               8406854244600000000000001323264BUDGSTANDARD4378         00000001I                  201008080010000000CRED    S0019H                                                                                                                      
TD               8406854245300000000000001323269BUDGSTANDARD4378         00000001G                  201008080010000000CRED    M0017G                                                                                                                      
TD               8406854245300000000000001323996BUDGSTANDARD4384         00000001B                  201008090010000000CRED    M0012C                                                                                                                      
TD               8406854246000000000000001323273BUDGSTANDARD4378         00000001I                  201008080010000000CRED    M0019H                                                                                                                      
TD               8406854247800000000000001323280BUDGSTANDARD4378         00000002D                  201008080010000000CRED    M0024H                                                                                                                      
TD               8406854248500000000000001323296BUDGSTANDARD4382         00000003G                  201008090010000000CRED    M0037E                                                                                                                      
TD               8406854248500000000000001324161BUDGSTANDARD4378         00000000D                  201008090010000000CRED    M0004I                                                                                                                      
TD               8406854249200000000000001323298BUDGSTANDARD4378         00000002E                  201008080010000000CRED    M0025E                                                                                                                      
TD               8406854249200000000000001324304BUDGSTANDARD4378         00000000F                  201008090010000000CRED    S0006E                                                                                                                      
TD               8406854250300000000000001323299BUDGSTANDARD4378         00000002E                  201008090010000000CRED    M0025F                                                                                                                      
TD               8406854250300000000000001324406BUDGSTANDARD4384         00000001A                  201008090010000000CRED    M0011C                                                                                                                      
TD               8406854251000000000000001323323BUDGSTANDARD4382         00000006H                  201008080010000000CRED    S0068C                                                                                                                      
TD               8406854251000000000000001324032BUDGSTANDARD4382         00000000E                  201008090010000000CRED    M0005E                                                                                                                      
TD               8406854252800000000000001323325BUDGSTANDARD4378         00000002I                  201008080010000000CRED    M0029F                                                                                                                      
TD               8406854252800000000000001324046BUDGSTANDARD4378         00000000C                  201008090010000000CRED    M0003I                                                                                                                      
TD               8406854253500000000000001323344BUDGSTANDARD4378         00000007D                  201008080010000000CRED    M0074I                                                                                                                      
TD               8406854254200000000000001323372BUDGSTANDARD4378         00000002I                  201008090010000000CRED    M0029F                                                                                                                      
TD               8406854255000000000000001323373BUDGSTANDARD4378         00000001F                  201008090010000000CRED    M0016D                                                                                                                      
TD               8406854256700000000000001323406BUDGSTANDARD4382         00000001G                  201008090010000000CRED    M0017D                                                                                                                      
TD               8406854257400000000000001323410BUDGSTANDARD4382         00000001I                  201008080010000000CRED    M0019B                                                                                                                      
TD               8406854257400000000000001326932BUDG1013BUDG4382         00000002E                  201008190010000000CRED    M0023E                                                                                                                      
TD               8406854257400000000000001326932BUDGSTANDARD4382         00000002C                  201008190010000000CRED    M0023E                                                                                                                      
TD               8406854258100000000000001323442BUDGSTANDARD4378         00000001E                  201008090010000000CRED    M0015F                                                                                                                      
TD               8406854259900000000000001323452BUDGSTANDARD4386         00000002E                  201008090010000000CRED    M0025{                                                                                                                      
TD               8406854260000000000000001323469BUDGSTANDARD4378         00000001F                  201008090010000000CRED    M0016B                                                                                                                      
TD               8406854261700000000000001323470BUDGSTANDARD4378         00000002{                  201008090010000000CRED    M0020G                                                                                                                      
TD               8406854262400000000000001323471BUDGSTANDARD4378         00000002F                  201008090010000000CRED    M0026D                                                                                                                      
TD               8406854263100000000000001323498BUDGSTANDARD4382         00000001G                  201008080010000000CRED    M0017A                                                                                                                      
TD               8406854264900000000000001323502BUDGSTANDARD4378         00000001C                  201008080010000000CRED    M0013E                                                                                                                      
TD               8406854265600000000000001323529BUDGSTANDARD4382         00000004C                  201008080010000000CRED    M0043{                                                                                                                      
TD               8406854266300000000000001323550BUDGSTANDARD4378         00000001H                  201008090010000000CRED    M0018{                                                                                                                      
TD               8406854267000000000000001323557BUDGSTANDARD4382         00000001B                  201008080010000000CRED    M0012H                                                                                                                      
TD               8406854268800000000000001323591BUDGSTANDARD4378         00000002D                  201008090010000000CRED    M0024{                                                                                                                      
TD               8406854268800000000000001326922BUDG1013BUDG4378         00000002E                  201008190010000000CRED    M0021C                                                                                                                      
TD               8406854268800000000000001326922BUDGSTANDARD4378         00000002A                  201008190010000000CRED    M0021C                                                                                                                      
TD               8406854269500000000000001323593BUDGSTANDARD4378         00000003{                  201008080010000000CRED    M0030G                                                                                                                      
TD               8406854270600000000000001323601BUDGSTANDARD4378         00000001C                  201008080010000000CRED    M0013H                                                                                                                      
TD               8406854271300000000000001323636BUDGSTANDARD4382         00000000G                  201008080010000000CRED    M0007D                                                                                                                      
TD               8406854272000000000000001323650BUDGSTANDARD4378         00000001F                  201008090010000000CRED    M0016H                                                                                                                      
TD               8406854273800000000000001323661BUDGSTANDARD4378         00000001C                  201008090010000000CRED    M0013E                                                                                                                      
TD               8406854274500000000000001323674BUDGSTANDARD4378         00000001H                  201008090010000000CRED    M0018F                                                                                                                      
TD               8406854275200000000000001323715BUDGSTANDARD4378         00000001B                  201008090010000000CRED    M0012F                                                                                                                      
TD               8406854276000000000000001323763BUDGSTANDARD4382         00000000I                  201008080010000000CRED    M0009I                                                                                                                      
TD               8406854277700000000000001323788BUDGSTANDARD4378         00000000C                  201008080010000000CRED    M0003D                                                                                                                      
TD               8406854278400000000000001323791BUDGSTANDARD4378         00000000F                  201008080010000000CRED    M0006D                                                                                                                      
TD               8406854279100000000000001323854BUDGSTANDARD4378         00000000F                  201008080010000000CRED    M0006C                                                                                                                      
TD               8406854280200000000000001323872BUDGSTANDARD4382         00000001B                  201008090010000000CRED    M0012B                                                                                                                      
TD               8406854281000000000000001323917BUDGSTANDARD4382         00000001D                  201008080010000000CRED    M0014I                                                                                                                      
TD               8406854282700000000000001323971BUDGSTANDARD4382         00000000G                  201008090010000000CRED    S0007I                                                                                                                      
TD               8406854283400000000000001323972BUDGSTANDARD4382         00000000E                  201008080010000000CRED    S0005G                                                                                                                      
TD               8406854284100000000000001323978BUDGSTANDARD4382         00000000I                  201008090010000000CRED    S0009F                                                                                                                      
TD               8406854284100000000000001324019BUDGSTANDARD4382         00000001E                  201008090010000000CRED    M0015D                                                                                                                      
TD               8406854284100000000000001326920BUDG1013BUDG4378         00000002E                  201008190010000000CRED    M0023E                                                                                                                      
TD               8406854284100000000000001326920BUDGSTANDARD4378         00000002C                  201008190010000000CRED    M0023E                                                                                                                      
TD               8406854285900000000000001326928BUDG1013BUDG4382         00000002E                  201008190010000000CRED    M0033C                                                                                                                      
TD               8406854285900000000000001326928BUDGSTANDARD4382         00000003C                  201008190010000000CRED    M0033C                                                                                                                      
