TH      BUBC0000042010081816254400000120000000000250G                                                                                                                                                                                                     
TD               8406673916700000000000001320483BUDGSTANDARD4378         00000010{                  201008170010000000CRED    M0133B                                                                                                                      
TD               8406673917400000000000001322017BUDGSTANDARD4378         00000005G                  201008170010000000CRED    M0057D                                                                                                                      
TD               8406673918100000000000001322718BUDGSTANDARD4378         00000007{                  201008170010000000CRED    M0070H                                                                                                                      
TD               8406673919900000000000001322835BUDGSTANDARD4378         00000004G                  201008170010000000CRED    M0047H                                                                                                                      
TD               8406673920000000000000001322883BUDGSTANDARD4378         00000010{                  201008170010000000CRED    S0146A                                                                                                                      
TD               8406673921700000000000001322914BUDGSTANDARD4378         00000009F                  201008170010000000CRED    M0096A                                                                                                                      
TD               8406673922400000000000001322918BUDGSTANDARD4378         00000005G                  201008170010000000CRED    M0057B                                                                                                                      
TD               8406673923100000000000001323230BUDGSTANDARD4378         00000006I                  201008170010000000CRED    M0069F                                                                                                                      
TD               8406673924900000000000001323391BUDGSTANDARD4378         00000004C                  201008160010000000CRED    M0043B                                                                                                                      
TD               8406673925600000000000001323538BUDGSTANDARD4378         00000006F                  201008160010000000CRED    S0066F                                                                                                                      
TD               8406854196700000000000001323665BUDGSTANDARD4378         00000004H                  201008160010000000CRED    M0048F                                                                                                                      
TD               8406854197400000000000001323945BUDGSTANDARD4378         00000004H                  201008160010000000CRED    M0048D                                                                                                                      
TD               8406854198100000000000001323976BUDGSTANDARD4382         00000006G                  201008170010000000CRED    M0067F                                                                                                                      
TD               8406854199900000000000001324344BUDGSTANDARD4378         00000004{                  201008160010000000CRED    M0040F                                                                                                                      
TD               8406854200100000000000001324380BUDGSTANDARD4378         00000005K                  201008160010000000CRED    M0052R                                                                                                                      
TD               8406854201900000000000001324502BUDGSTANDARD4378         00000002{                  201008160010000000CRED    M0020I                                                                                                                      
TD               8406854202600000000000001324579BUDGSTANDARD4378         00000003A                  201008160010000000CRED    M0031H                                                                                                                      
TD               8406854203300000000000001324579BUDGSTANDARD4378         00000000K                  201008160010000000CRED    M0002}                                                                                                                      
TD               8406854203300000000000001326757BUDGSTANDARD4378         00000001D                  201008170010000000CRED    M0014I                                                                                                                      
TD               8406854203300000000000001326931BUDG1013BUDG4382         00000002E                  201008190010000000CRED    M0019B                                                                                                                      
TD               8406854203300000000000001326931BUDGSTANDARD4382         00000001I                  201008190010000000CRED    M0019B                                                                                                                      
TD               8406854204000000000000001324633BUDGSTANDARD4382         00000005F                  201008170010000000CRED    M0056D                                                                                                                      
TD               8406854205800000000000001324748BUDGSTANDARD4386         00000004I                  201008160010000000CRED    M0049{                                                                                                                      
TD               8406854206500000000000001324759BUDGSTANDARD4382         00000002I                  201008170010000000CRED    M0029{                                                                                                                      
TD               8406854207200000000000001324796BUDGSTANDARD4378         00000003D                  201008170010000000CRED    M0034H                                                                                                                      
TD               8406854208000000000000001324873BUDGSTANDARD4378         00000004D                  201008170010000000CRED    M0044D                                                                                                                      
TD               8406854209700000000000001324974BUDGSTANDARD4382         00000004F                  201008170010000000CRED    M0046C                                                                                                                      
TD               8406854210800000000000001325072BUDGSTANDARD4378         00000002I                  201008170010000000CRED    M0029D                                                                                                                      
TD               8406854211500000000000001325089BUDGSTANDARD4378         00000004{                  201008160010000000CRED    M0040D                                                                                                                      
TD               8406854212200000000000001325100BUDGSTANDARD4378         00000004E                  201008160010000000CRED    M0045I                                                                                                                      
TD               8406854212200000000000001326921BUDGSTANDARD4378         00000002R                  201008190010000000CRED    M0029R                                                                                                                      
TD               8406854213000000000000001325110BUDGSTANDARD4378         00000003A                  201008170010000000CRED    M0031F                                                                                                                      
TD               8406854214700000000000001325147BUDGSTANDARD4378         00000003C                  201008160010000000CRED    M0033F                                                                                                                      
TD               8406854215400000000000001325183BUDGSTANDARD4378         00000003D                  201008170010000000CRED    M0034H                                                                                                                      
TD               8406854216100000000000001325191BUDGSTANDARD4378         00000003{                  201008160010000000CRED    M0030E                                                                                                                      
TD               8406854217900000000000001325208BUDGSTANDARD4378         00000003{                  201008160010000000CRED    M0030{                                                                                                                      
TD               8406854217900000000000001326562BUDGSTANDARD4382         00000000H                  201008170010000000CASH    M0008C                                                                                                                      
TD               8406854218600000000000001325216BUDGSTANDARD4382         00000002A                  201008160010000000CRED    M0021G                                                                                                                      
TD               8406854218600000000000001326666BUDGSTANDARD4378         00000000N                  201008170010000000CRED    M0005L                                                                                                                      
TD               8406854219300000000000001325305BUDGSTANDARD4378         00000001G                  201008160010000000CRED    S0017B                                                                                                                      
TD               8406854219300000000000001326685BUDGSTANDARD4378         00000000D                  201008170010000000CRED    M0004F                                                                                                                      
TD               8406854220400000000000001325312BUDGSTANDARD4378         00000002E                  201008160010000000CRED    M0025B                                                                                                                      
TD               8406854220400000000000001326711BUDGSTANDARD4378         00000000E                  201008170010000000CRED    M0005C                                                                                                                      
TD               8406854221100000000000001325317BUDGSTANDARD4378         00000004I                  201008160010000000CRED    M0049I                                                                                                                      
TD               8406854222900000000000001325324BUDGSTANDARD4378         00000002I                  201008160010000000CRED    M0029F                                                                                                                      
TD               8406854223600000000000001325378BUDGSTANDARD4378         00000001F                  201008160010000000CRED    M0016D                                                                                                                      
TD               8406854224300000000000001325406BUDGSTANDARD4378         00000003C                  201008170010000000CRED    M0033{                                                                                                                      
TD               8406854225000000000000001325453BUDGSTANDARD4378         00000002C                  201008160010000000CRED    M0023F                                                                                                                      
TD               8406854225000000000000001326930BUDGSTANDARD4382         00000000N                  201008190010000000CRED    M0005}                                                                                                                      
TD               8406854225000000000000001326930BUDGSTANDARD4382         00000001E                  201008190010000000CRED    M0015{                                                                                                                      
TD               8406854226800000000000001325461BUDGSTANDARD4378         00000002D                  201008160010000000CRED    M0024D                                                                                                                      
TD               8406854227500000000000001325465BUDGSTANDARD4378         00000003D                  201008170010000000CRED    M0034H                                                                                                                      
TD               8406854228200000000000001325489BUDGSTANDARD4378         00000001H                  201008160010000000CRED    M0018H                                                                                                                      
TD               8406854229000000000000001325508BUDGSTANDARD4378         00000003D                  201008170010000000CASH    M0034E                                                                                                                      
TD               8406854230000000000000001325519BUDGSTANDARD4382         00000001G                  201008160010000000CRED    M0017A                                                                                                                      
TD               8406854230000000000000001326924BUDG1013BUDG4378         00000002E                  201008190010000000CRED    M0025D                                                                                                                      
TD               8406854230000000000000001326924BUDGSTANDARD4378         00000002E                  201008190010000000CRED    M0025D                                                                                                                      
TD               8406854231800000000000001325576BUDGSTANDARD4382         00000001I                  201008160010000000CRED    M0019G                                                                                                                      
TD               8406854232500000000000001325583BUDGSTANDARD4378         00000003A                  201008170010000000CRED    M0031E                                                                                                                      
TD               8406854233200000000000001325591BUDGSTANDARD4382         00000002J                  201008170010000000CRED    M0021L                                                                                                                      
TD               8406854234000000000000001325601BUDGSTANDARD4378         00000003E                  201008160010000000CRED    M0035F                                                                                                                      
TD               8406854235700000000000001325606BUDGSTANDARD4378         00000001E                  201008170010000000CRED    M0015F                                                                                                                      
TD               8406854236400000000000001325617BUDGSTANDARD4378         00000001G                  201008160010000000CRED    M0017A                                                                                                                      
TD               8406854237100000000000001325733BUDGSTANDARD4378         00000002F                  201008160010000000CRED    M0026A                                                                                                                      
TD               8406854238900000000000001325758BUDGSTANDARD4378         00000005C                  201008170010000000CRED    M0053E                                                                                                                      
TD               8406854239600000000000001325791BUDGSTANDARD4378         00000003C                  201008160010000000CRED    M0033B                                                                                                                      
TD               8406854240700000000000001325798BUDGSTANDARD4378         00000001D                  201008160010000000CRED    M0014E                                                                                                                      
TD               8406854241400000000000001325813BUDGSTANDARD4382         00000002G                  201008160010000000CRED    M0027B                                                                                                                      
TD               8406854242100000000000001325871BUDGSTANDARD4378         00000001H                  201008170010000000CRED    M0018I                                                                                                                      
TD               8406854243900000000000001325892BUDGSTANDARD4378         00000001H                  201008170010000000CRED    M0018E                                                                                                                      
TD               8406854244600000000000001325895BUDGSTANDARD4378         00000001M                  201008160010000000CRED    M0014K                                                                                                                      
TD               8406854245300000000000001325923BUDGSTANDARD4386         00000001F                  201008160010000000CRED    M0016B                                                                                                                      
TD               8406854246000000000000001325928BUDGSTANDARD4378         00000001D                  201008160010000000CRED    M0014H                                                                                                                      
TD               8406854247800000000000001325979BUDGSTANDARD4378         00000001G                  201008160010000000CRED    M0017D                                                                                                                      
TD               8406854248500000000000001326032BUDGSTANDARD4378         00000001I                  201008170010000000CRED    M0019B                                                                                                                      
TD               8406854249200000000000001326048BUDGSTANDARD4382         00000001J                  201008170010000000CRED    M0011}                                                                                                                      
TD               8406854250300000000000001326050BUDGSTANDARD4378         00000001G                  201008170010000000CRED    M0017D                                                                                                                      
TD               8406854251000000000000001326071BUDGSTANDARD4382         00000001{                  201008170010000000CRED    M0010H                                                                                                                      
TD               8406854252800000000000001326098BUDGSTANDARD4382         00000000L                  201008160010000000CRED    M0003R                                                                                                                      
TD               8406854253500000000000001326120BUDGSTANDARD4382         00000000E                  201008160010000000CRED    M0005E                                                                                                                      
TD               8406854254200000000000001326153BUDGSTANDARD4378         00000000E                  201008160010000000CRED    M0005H                                                                                                                      
TD               8406854255000000000000001326160BUDGSTANDARD4382         00000001E                  201008160010000000CRED    M0015C                                                                                                                      
TD               8406854256700000000000001326160BUDGSTANDARD4382         00000000P                  201008160010000000CRED    M0007O                                                                                                                      
TD               8406854256700000000000001326607BUDGSTANDARD4378         00000000N                  201008170010000000CRED    M0005L                                                                                                                      
TD               8406854257400000000000001326165BUDGSTANDARD4378         00000000I                  201008170010000000CRED    S0009A                                                                                                                      
TD               8406854257400000000000001326681BUDGSTANDARD4378         00000000D                  201008170010000000CRED    M0004I                                                                                                                      
TD               8406854258100000000000001326185BUDGSTANDARD4378         00000000H                  201008160010000000CRED    M0008F                                                                                                                      
TD               8406854258100000000000001326689BUDGSTANDARD4378         00000001{                  201008170010000000CRED    M0010I                                                                                                                      
TD               8406854259900000000000001326207BUDGSTANDARD4382         00000001A                  201008170010000000CRED    M0011F                                                                                                                      
TD               8406854259900000000000001326716BUDGSTANDARD4378         00000000I                  201008170010000000CRED    M0009E                                                                                                                      
TD               8406854260000000000000001326211BUDGSTANDARD4382         00000000O                  201008160010000000CRED    S0006J                                                                                                                      
TD               8406854261700000000000001326213BUDGSTANDARD4382         00000000H                  201008170010000000CASH    M0008D                                                                                                                      
TD               8406854262400000000000001326226BUDGSTANDARD4378         00000001G                  201008170010000000CRED    M0017H                                                                                                                      
TD               8406854263100000000000001326227BUDGSTANDARD4378         00000001{                  201008160010000000CRED    M0010I                                                                                                                      
TD               8406854263100000000000001326927BUDG1013BUDG4378         00000002E                  201008190010000000CRED    M0005Q                                                                                                                      
TD               8406854263100000000000001326927BUDGSTANDARD4378         00000000N                  201008190010000000CRED    M0005Q                                                                                                                      
TD               8406854264900000000000001326231BUDGSTANDARD4378         00000001A                  201008170010000000CRED    M0011B                                                                                                                      
TD               8406854265600000000000001326236BUDGSTANDARD4378         00000000H                  201008170010000000CRED    M0008D                                                                                                                      
TD               8406854266300000000000001326243BUDGSTANDARD4378         00000000N                  201008160010000000CRED    M0005M                                                                                                                      
TD               8406854267000000000000001326244BUDGSTANDARD4378         00000001{                  201008170010000000CRED    M0010H                                                                                                                      
TD               8406854268800000000000001326252BUDGSTANDARD4378         00000000R                  201008170010000000CRED    M0009M                                                                                                                      
TD               8406854269500000000000001326256BUDGSTANDARD4378         00000000H                  201008170010000000CRED    M0008F                                                                                                                      
TD               8406854270600000000000001326307BUDGSTANDARD4378         00000000E                  201008160010000000CRED    M0005C                                                                                                                      
TD               8406854271300000000000001326324BUDGSTANDARD4378         00000001F                  201008170010000000CRED    M0016H                                                                                                                      
TD               8406854272000000000000001326340BUDGSTANDARD4378         00000000D                  201008160010000000CRED    M0004I                                                                                                                      
TD               8406854273800000000000001326345BUDGSTANDARD4378         00000001F                  201008170010000000CRED    M0016B                                                                                                                      
TD               8406854274500000000000001326362BUDGSTANDARD4378         00000001A                  201008160010000000CRED    M0011H                                                                                                                      
TD               8406854275200000000000001326364BUDGSTANDARD4382         00000000G                  201008170010000000CRED    M0007I                                                                                                                      
TD               8406854276000000000000001326399BUDGSTANDARD4382         00000000E                  201008170010000000CRED    M0005D                                                                                                                      
TD               8406854277700000000000001326412BUDGSTANDARD4384         00000000G                  201008170010000000CRED    M0007H                                                                                                                      
TD               8406854277700000000000001326925BUDG1013BUDG4378         00000002E                  201008190010000000CRED    M0025E                                                                                                                      
TD               8406854277700000000000001326925BUDGSTANDARD4378         00000002E                  201008190010000000CRED    M0025E                                                                                                                      
TD               8406854278400000000000001326446BUDGSTANDARD4378         00000000N                  201008160010000000CRED    M0005J                                                                                                                      
TD               8406854279100000000000001326450BUDGSTANDARD4378         00000001A                  201008170010000000CRED    M0011B                                                                                                                      
TD               8406854280200000000000001326467BUDGSTANDARD4378         00000000B                  201008170010000000CRED    M0002I                                                                                                                      
TD               8406854281000000000000001326476BUDGSTANDARD4378         00000000H                  201008170010000000CRED    M0008H                                                                                                                      
TD               8406854282700000000000001326478BUDGSTANDARD4378         00000000M                  201008170010000000CRED    M0004P                                                                                                                      
TD               8406854283400000000000001326479BUDGSTANDARD4378         00000000C                  201008170010000000CRED    M0003{                                                                                                                      
TD               8406854284100000000000001326502BUDGSTANDARD4378         00000000D                  201008170010000000CRED    M0004I                                                                                                                      
TD               8406854285900000000000001326546BUDGSTANDARD4378         00000000E                  201008170010000000CRED    M0005C                                                                                                                      
